{
  "_format": "hh-sol-artifact-1",
  "contractName": "CrowdFund",
  "sourceName": "contracts/CrowdFund.sol",
  "abi": [
    {
      "inputs": [],
      "stateMutability": "nonpayable",
      "type": "constructor"
    },
    {
      "inputs": [
        {
          "internalType": "uint256",
          "name": "_id",
          "type": "uint256"
        },
        {
          "internalType": "uint256",
          "name": "_withdrawalID",
          "type": "uint256"
        },
        {
          "internalType": "uint256",
          "name": "_vote",
          "type": "uint256"
        }
      ],
      "name": "approveWithdraw",
      "outputs": [],
      "stateMutability": "nonpayable",
      "type": "function"
    },
    {
      "inputs": [
        {
          "internalType": "uint256",
          "name": "_id",
          "type": "uint256"
        },
        {
          "internalType": "uint256",
          "name": "_withdrawalID",
          "type": "uint256"
        }
      ],
      "name": "claimWithdrawal",
      "outputs": [],
      "stateMutability": "nonpayable",
      "type": "function"
    },
    {
      "inputs": [
        {
          "internalType": "uint256",
          "name": "_amount",
          "type": "uint256"
        },
        {
          "internalType": "uint256",
          "name": "_id",
          "type": "uint256"
        }
      ],
      "name": "contribute",
      "outputs": [],
      "stateMutability": "payable",
      "type": "function"
    },
    {
      "inputs": [
        {
          "internalType": "string",
          "name": "_data",
          "type": "string"
        },
        {
          "internalType": "uint256",
          "name": "_goalAmount",
          "type": "uint256"
        },
        {
          "internalType": "uint256",
          "name": "_minContribution",
          "type": "uint256"
        },
        {
          "internalType": "uint256",
          "name": "_days",
          "type": "uint256"
        }
      ],
      "name": "createCampaign",
      "outputs": [],
      "stateMutability": "payable",
      "type": "function"
    },
    {
      "inputs": [
        {
          "internalType": "uint256",
          "name": "_id",
          "type": "uint256"
        },
        {
          "internalType": "uint256",
          "name": "_amount",
          "type": "uint256"
        },
        {
          "internalType": "string",
          "name": "_desc",
          "type": "string"
        },
        {
          "internalType": "uint256",
          "name": "_days",
          "type": "uint256"
        }
      ],
      "name": "createWithdrawal",
      "outputs": [],
      "stateMutability": "nonpayable",
      "type": "function"
    },
    {
      "inputs": [],
      "name": "getAllCampaigns",
      "outputs": [
        {
          "components": [
            {
              "internalType": "uint256",
              "name": "id",
              "type": "uint256"
            },
            {
              "internalType": "uint256",
              "name": "minContribution",
              "type": "uint256"
            },
            {
              "internalType": "address payable",
              "name": "creator",
              "type": "address"
            },
            {
              "internalType": "string",
              "name": "data",
              "type": "string"
            },
            {
              "internalType": "uint256",
              "name": "totalRaised",
              "type": "uint256"
            },
            {
              "internalType": "uint256",
              "name": "balance",
              "type": "uint256"
            },
            {
              "internalType": "uint256",
              "name": "capAmount",
              "type": "uint256"
            },
            {
              "internalType": "enum CrowdFund.Status",
              "name": "status",
              "type": "uint8"
            },
            {
              "internalType": "uint256",
              "name": "withdrawCount",
              "type": "uint256"
            },
            {
              "internalType": "uint256",
              "name": "ContributorCount",
              "type": "uint256"
            },
            {
              "internalType": "uint256",
              "name": "deadlineInDays",
              "type": "uint256"
            }
          ],
          "internalType": "struct CrowdFund.Campaign[]",
          "name": "",
          "type": "tuple[]"
        }
      ],
      "stateMutability": "view",
      "type": "function"
    },
    {
      "inputs": [
        {
          "internalType": "uint256",
          "name": "_id",
          "type": "uint256"
        }
      ],
      "name": "getCampaign",
      "outputs": [
        {
          "components": [
            {
              "internalType": "uint256",
              "name": "id",
              "type": "uint256"
            },
            {
              "internalType": "uint256",
              "name": "minContribution",
              "type": "uint256"
            },
            {
              "internalType": "address payable",
              "name": "creator",
              "type": "address"
            },
            {
              "internalType": "string",
              "name": "data",
              "type": "string"
            },
            {
              "internalType": "uint256",
              "name": "totalRaised",
              "type": "uint256"
            },
            {
              "internalType": "uint256",
              "name": "balance",
              "type": "uint256"
            },
            {
              "internalType": "uint256",
              "name": "capAmount",
              "type": "uint256"
            },
            {
              "internalType": "enum CrowdFund.Status",
              "name": "status",
              "type": "uint8"
            },
            {
              "internalType": "uint256",
              "name": "withdrawCount",
              "type": "uint256"
            },
            {
              "internalType": "uint256",
              "name": "ContributorCount",
              "type": "uint256"
            },
            {
              "internalType": "uint256",
              "name": "deadlineInDays",
              "type": "uint256"
            }
          ],
          "internalType": "struct CrowdFund.Campaign",
          "name": "",
          "type": "tuple"
        }
      ],
      "stateMutability": "view",
      "type": "function"
    },
    {
      "inputs": [],
      "name": "getMyCampaigns",
      "outputs": [
        {
          "components": [
            {
              "internalType": "uint256",
              "name": "id",
              "type": "uint256"
            },
            {
              "internalType": "uint256",
              "name": "minContribution",
              "type": "uint256"
            },
            {
              "internalType": "address payable",
              "name": "creator",
              "type": "address"
            },
            {
              "internalType": "string",
              "name": "data",
              "type": "string"
            },
            {
              "internalType": "uint256",
              "name": "totalRaised",
              "type": "uint256"
            },
            {
              "internalType": "uint256",
              "name": "balance",
              "type": "uint256"
            },
            {
              "internalType": "uint256",
              "name": "capAmount",
              "type": "uint256"
            },
            {
              "internalType": "enum CrowdFund.Status",
              "name": "status",
              "type": "uint8"
            },
            {
              "internalType": "uint256",
              "name": "withdrawCount",
              "type": "uint256"
            },
            {
              "internalType": "uint256",
              "name": "ContributorCount",
              "type": "uint256"
            },
            {
              "internalType": "uint256",
              "name": "deadlineInDays",
              "type": "uint256"
            }
          ],
          "internalType": "struct CrowdFund.Campaign",
          "name": "",
          "type": "tuple"
        }
      ],
      "stateMutability": "view",
      "type": "function"
    }
  ],
  "bytecode": "0x608060405234801561001057600080fd5b50736b175474e89094c44da98b954eedeac495271d0f6000806101000a81548173ffffffffffffffffffffffffffffffffffffffff021916908373ffffffffffffffffffffffffffffffffffffffff16021790555060006001819055506802b5e3af16b1880000600281905550678ac7230489e80000600381905550612be08061009b6000396000f3fe60806040526004361061007b5760003560e01c80638c5909171161004e5780638c5909171461013c578063b5a898ae14610158578063ea250fab14610174578063f21340e41461019d5761007b565b80635598f8cc1461008057806371c17f86146100bd57806382bea0ca146100e657806386cdf60414610111575b600080fd5b34801561008c57600080fd5b506100a760048036038101906100a29190611e1e565b6101c6565b6040516100b491906125af565b60405180910390f35b3480156100c957600080fd5b506100e460048036038101906100df9190611f0e565b610376565b005b3480156100f257600080fd5b506100fb6107e3565b60405161010891906125af565b60405180910390f35b34801561011d57600080fd5b506101266109ae565b604051610133919061242d565b60405180910390f35b61015660048036038101906101519190611e4b565b610b81565b005b610172600480360381019061016d9190611d9b565b610fac565b005b34801561018057600080fd5b5061019b60048036038101906101969190611e8b565b611353565b005b3480156101a957600080fd5b506101c460048036038101906101bf9190611e4b565b6116f4565b005b6101ce611baf565b600582815481106101e2576101e1612922565b5b90600052602060002090600b02016040518061016001604052908160008201548152602001600182015481526020016002820160009054906101000a900473ffffffffffffffffffffffffffffffffffffffff1673ffffffffffffffffffffffffffffffffffffffff1673ffffffffffffffffffffffffffffffffffffffff16815260200160038201805461027690612832565b80601f01602080910402602001604051908101604052809291908181526020018280546102a290612832565b80156102ef5780601f106102c4576101008083540402835291602001916102ef565b820191906000526020600020905b8154815290600101906020018083116102d257829003601f168201915b505050505081526020016004820154815260200160058201548152602001600682015481526020016007820160009054906101000a900460ff16600481111561033b5761033a6128c4565b5b600481111561034d5761034c6128c4565b5b81526020016008820154815260200160098201548152602001600a820154815250509050919050565b826001548111156103bc576040517f08c379a00000000000000000000000000000000000000000000000000000000081526004016103b39061252f565b60405180910390fd5b6000600585815481106103d2576103d1612922565b5b90600052602060002090600b02016040518061016001604052908160008201548152602001600182015481526020016002820160009054906101000a900473ffffffffffffffffffffffffffffffffffffffff1673ffffffffffffffffffffffffffffffffffffffff1673ffffffffffffffffffffffffffffffffffffffff16815260200160038201805461046690612832565b80601f016020809104026020016040519081016040528092919081815260200182805461049290612832565b80156104df5780601f106104b4576101008083540402835291602001916104df565b820191906000526020600020905b8154815290600101906020018083116104c257829003601f168201915b505050505081526020016004820154815260200160058201548152602001600682015481526020016007820160009054906101000a900460ff16600481111561052b5761052a6128c4565b5b600481111561053d5761053c6128c4565b5b81526020016008820154815260200160098201548152602001600a8201548152505090506000600860003373ffffffffffffffffffffffffffffffffffffffff1673ffffffffffffffffffffffffffffffffffffffff168152602001908152602001600020600087815260200190815260200160002054116105f4576040517f08c379a00000000000000000000000000000000000000000000000000000000081526004016105eb9061248f565b60405180910390fd5b838161010001511461063b576040517f08c379a00000000000000000000000000000000000000000000000000000000081526004016106329061246f565b60405180910390fd5b600060096000878152602001908152602001600020600086815260200190815260200160002090508060030160003373ffffffffffffffffffffffffffffffffffffffff1673ffffffffffffffffffffffffffffffffffffffff16815260200190815260200160002060009054906101000a900460ff166106f1576040517f08c379a00000000000000000000000000000000000000000000000000000000081526004016106e89061250f565b60405180910390fd5b60018414806107005750600084145b61073f576040517f08c379a00000000000000000000000000000000000000000000000000000000081526004016107369061244f565b60405180910390fd5b6001816005016000828254610754919061268d565b925050819055506001841415610781576001816004016000828254610779919061268d565b925050819055505b60008160030160003373ffffffffffffffffffffffffffffffffffffffff1673ffffffffffffffffffffffffffffffffffffffff16815260200190815260200160002060006101000a81548160ff021916908315150217905550505050505050565b6107eb611baf565b600660003373ffffffffffffffffffffffffffffffffffffffff1673ffffffffffffffffffffffffffffffffffffffff1681526020019081526020016000206040518061016001604052908160008201548152602001600182015481526020016002820160009054906101000a900473ffffffffffffffffffffffffffffffffffffffff1673ffffffffffffffffffffffffffffffffffffffff1673ffffffffffffffffffffffffffffffffffffffff1681526020016003820180546108b090612832565b80601f01602080910402602001604051908101604052809291908181526020018280546108dc90612832565b80156109295780601f106108fe57610100808354040283529160200191610929565b820191906000526020600020905b81548152906001019060200180831161090c57829003601f168201915b505050505081526020016004820154815260200160058201548152602001600682015481526020016007820160009054906101000a900460ff166004811115610975576109746128c4565b5b6004811115610987576109866128c4565b5b81526020016008820154815260200160098201548152602001600a82015481525050905090565b60606005805480602002602001604051908101604052809291908181526020016000905b82821015610b7857838290600052602060002090600b02016040518061016001604052908160008201548152602001600182015481526020016002820160009054906101000a900473ffffffffffffffffffffffffffffffffffffffff1673ffffffffffffffffffffffffffffffffffffffff1673ffffffffffffffffffffffffffffffffffffffff168152602001600382018054610a7090612832565b80601f0160208091040260200160405190810160405280929190818152602001828054610a9c90612832565b8015610ae95780601f10610abe57610100808354040283529160200191610ae9565b820191906000526020600020905b815481529060010190602001808311610acc57829003601f168201915b505050505081526020016004820154815260200160058201548152602001600682015481526020016007820160009054906101000a900460ff166004811115610b3557610b346128c4565b5b6004811115610b4757610b466128c4565b5b81526020016008820154815260200160098201548152602001600a82015481525050815260200190600101906109d2565b50505050905090565b80600154811115610bc7576040517f08c379a0000000000000000000000000000000000000000000000000000000008152600401610bbe9061252f565b60405180910390fd5b600060058381548110610bdd57610bdc612922565b5b90600052602060002090600b02016040518061016001604052908160008201548152602001600182015481526020016002820160009054906101000a900473ffffffffffffffffffffffffffffffffffffffff1673ffffffffffffffffffffffffffffffffffffffff1673ffffffffffffffffffffffffffffffffffffffff168152602001600382018054610c7190612832565b80601f0160208091040260200160405190810160405280929190818152602001828054610c9d90612832565b8015610cea5780601f10610cbf57610100808354040283529160200191610cea565b820191906000526020600020905b815481529060010190602001808311610ccd57829003601f168201915b505050505081526020016004820154815260200160058201548152602001600682015481526020016007820160009054906101000a900460ff166004811115610d3657610d356128c4565b5b6004811115610d4857610d476128c4565b5b81526020016008820154815260200160098201548152602001600a8201548152505090508060200151341015610db3576040517f08c379a0000000000000000000000000000000000000000000000000000000008152600401610daa9061258f565b60405180910390fd5b60006004811115610dc757610dc66128c4565b5b8160e001516004811115610dde57610ddd6128c4565b5b14610e1e576040517f08c379a0000000000000000000000000000000000000000000000000000000008152600401610e159061254f565b60405180910390fd5b83600860003373ffffffffffffffffffffffffffffffffffffffff1673ffffffffffffffffffffffffffffffffffffffff16815260200190815260200160002060008581526020019081526020016000206000828254610e7e919061268d565b9250508190555060018161012001818151610e99919061268d565b9150818152505083600460003373ffffffffffffffffffffffffffffffffffffffff1673ffffffffffffffffffffffffffffffffffffffff1681526020019081526020016000206000828254610eef919061268d565b9250508190555060008054906101000a900473ffffffffffffffffffffffffffffffffffffffff1673ffffffffffffffffffffffffffffffffffffffff166323b872dd3330346040518463ffffffff1660e01b8152600401610f53939291906123cd565b602060405180830381600087803b158015610f6d57600080fd5b505af1158015610f81573d6000803e3d6000fd5b505050506040513d601f19601f82011682018060405250810190610fa59190611d6e565b5050505050565b600060405180610160016040528060015481526020018481526020013373ffffffffffffffffffffffffffffffffffffffff168152602001868152602001600081526020016000815260200185815260200160006004811115611012576110116128c4565b5b81526020016000815260200160008152602001620151808461103491906126e3565b4261103f919061268d565b815250905080600660003373ffffffffffffffffffffffffffffffffffffffff1673ffffffffffffffffffffffffffffffffffffffff168152602001908152602001600020600082015181600001556020820151816001015560408201518160020160006101000a81548173ffffffffffffffffffffffffffffffffffffffff021916908373ffffffffffffffffffffffffffffffffffffffff16021790555060608201518160030190805190602001906110fb929190611c31565b506080820151816004015560a0820151816005015560c0820151816006015560e08201518160070160006101000a81548160ff02191690836004811115611145576111446128c4565b5b02179055506101008201518160080155610120820151816009015561014082015181600a015590505060058190806001815401808255809150506001900390600052602060002090600b0201600090919091909150600082015181600001556020820151816001015560408201518160020160006101000a81548173ffffffffffffffffffffffffffffffffffffffff021916908373ffffffffffffffffffffffffffffffffffffffff1602179055506060820151816003019080519060200190611211929190611c31565b506080820151816004015560a0820151816005015560c0820151816006015560e08201518160070160006101000a81548160ff0219169083600481111561125b5761125a6128c4565b5b02179055506101008201518160080155610120820151816009015561014082015181600a015550506001806000828254611295919061268d565b9250508190555060008054906101000a900473ffffffffffffffffffffffffffffffffffffffff1673ffffffffffffffffffffffffffffffffffffffff166323b872dd3330346040518463ffffffff1660e01b81526004016112f9939291906123cd565b602060405180830381600087803b15801561131357600080fd5b505af1158015611327573d6000803e3d6000fd5b505050506040513d601f19601f8201168201806040525081019061134b9190611d6e565b505050505050565b83600154811115611399576040517f08c379a00000000000000000000000000000000000000000000000000000000081526004016113909061252f565b60405180910390fd5b3373ffffffffffffffffffffffffffffffffffffffff16600582815481106113c4576113c3612922565b5b90600052602060002090600b020160020160009054906101000a900473ffffffffffffffffffffffffffffffffffffffff1673ffffffffffffffffffffffffffffffffffffffff161461144c576040517f08c379a0000000000000000000000000000000000000000000000000000000008152600401611443906124cf565b60405180910390fd5b60006005868154811061146257611461612922565b5b90600052602060002090600b02016040518061016001604052908160008201548152602001600182015481526020016002820160009054906101000a900473ffffffffffffffffffffffffffffffffffffffff1673ffffffffffffffffffffffffffffffffffffffff1673ffffffffffffffffffffffffffffffffffffffff1681526020016003820180546114f690612832565b80601f016020809104026020016040519081016040528092919081815260200182805461152290612832565b801561156f5780601f106115445761010080835404028352916020019161156f565b820191906000526020600020905b81548152906001019060200180831161155257829003601f168201915b505050505081526020016004820154815260200160058201548152602001600682015481526020016007820160009054906101000a900460ff1660048111156115bb576115ba6128c4565b5b60048111156115cd576115cc6128c4565b5b81526020016008820154815260200160098201548152602001600a8201548152505090508060a00151851015611638576040517f08c379a000000000000000000000000000000000000000000000000000000000815260040161162f906124af565b60405180910390fd5b6000600960008881526020019081526020016000206000836101000151815260200190815260200160002090508481600001908051906020019061167d929190611c31565b506000816004018190555085816001018190555060008160020160006101000a81548160ff02191690831515021790555062015180846116bd91906126e3565b426116c8919061268d565b8160070181905550600182610100018181516116e4919061268d565b9150818152505050505050505050565b8160015481111561173a576040517f08c379a00000000000000000000000000000000000000000000000000000000081526004016117319061252f565b60405180910390fd5b3373ffffffffffffffffffffffffffffffffffffffff166005828154811061176557611764612922565b5b90600052602060002090600b020160020160009054906101000a900473ffffffffffffffffffffffffffffffffffffffff1673ffffffffffffffffffffffffffffffffffffffff16146117ed576040517f08c379a00000000000000000000000000000000000000000000000000000000081526004016117e4906124cf565b60405180910390fd5b6000600960008581526020019081526020016000206000848152602001908152602001600020905060006005858154811061182b5761182a612922565b5b90600052602060002090600b02016040518061016001604052908160008201548152602001600182015481526020016002820160009054906101000a900473ffffffffffffffffffffffffffffffffffffffff1673ffffffffffffffffffffffffffffffffffffffff1673ffffffffffffffffffffffffffffffffffffffff1681526020016003820180546118bf90612832565b80601f01602080910402602001604051908101604052809291908181526020018280546118eb90612832565b80156119385780601f1061190d57610100808354040283529160200191611938565b820191906000526020600020905b81548152906001019060200180831161191b57829003601f168201915b505050505081526020016004820154815260200160058201548152602001600682015481526020016007820160009054906101000a900460ff166004811115611984576119836128c4565b5b6004811115611996576119956128c4565b5b81526020016008820154815260200160098201548152602001600a8201548152505090508060a0015182600101541015611a05576040517f08c379a00000000000000000000000000000000000000000000000000000000081526004016119fc906124af565b60405180910390fd5b8160060160009054906101000a900460ff1615611a57576040517f08c379a0000000000000000000000000000000000000000000000000000000008152600401611a4e9061256f565b60405180910390fd5b81600701546201518042611a6b91906126e3565b11611aab576040517f08c379a0000000000000000000000000000000000000000000000000000000008152600401611aa2906124ef565b60405180910390fd5b816005015482600401541115611ba85781600101548160a001818151611ad1919061273d565b9150818152505060018260060160006101000a81548160ff02191690831515021790555060008054906101000a900473ffffffffffffffffffffffffffffffffffffffff1673ffffffffffffffffffffffffffffffffffffffff1663a9059cbb3384600101546040518363ffffffff1660e01b8152600401611b54929190612404565b602060405180830381600087803b158015611b6e57600080fd5b505af1158015611b82573d6000803e3d6000fd5b505050506040513d601f19601f82011682018060405250810190611ba69190611d6e565b505b5050505050565b6040518061016001604052806000815260200160008152602001600073ffffffffffffffffffffffffffffffffffffffff1681526020016060815260200160008152602001600081526020016000815260200160006004811115611c1657611c156128c4565b5b81526020016000815260200160008152602001600081525090565b828054611c3d90612832565b90600052602060002090601f016020900481019282611c5f5760008555611ca6565b82601f10611c7857805160ff1916838001178555611ca6565b82800160010185558215611ca6579182015b82811115611ca5578251825591602001919060010190611c8a565b5b509050611cb39190611cb7565b5090565b5b80821115611cd0576000816000905550600101611cb8565b5090565b6000611ce7611ce2846125f6565b6125d1565b905082815260208101848484011115611d0357611d02612985565b5b611d0e8482856127f0565b509392505050565b600081519050611d2581612b7c565b92915050565b600082601f830112611d4057611d3f612980565b5b8135611d50848260208601611cd4565b91505092915050565b600081359050611d6881612b93565b92915050565b600060208284031215611d8457611d8361298f565b5b6000611d9284828501611d16565b91505092915050565b60008060008060808587031215611db557611db461298f565b5b600085013567ffffffffffffffff811115611dd357611dd261298a565b5b611ddf87828801611d2b565b9450506020611df087828801611d59565b9350506040611e0187828801611d59565b9250506060611e1287828801611d59565b91505092959194509250565b600060208284031215611e3457611e3361298f565b5b6000611e4284828501611d59565b91505092915050565b60008060408385031215611e6257611e6161298f565b5b6000611e7085828601611d59565b9250506020611e8185828601611d59565b9150509250929050565b60008060008060808587031215611ea557611ea461298f565b5b6000611eb387828801611d59565b9450506020611ec487828801611d59565b935050604085013567ffffffffffffffff811115611ee557611ee461298a565b5b611ef187828801611d2b565b9250506060611f0287828801611d59565b91505092959194509250565b600080600060608486031215611f2757611f2661298f565b5b6000611f3586828701611d59565b9350506020611f4686828701611d59565b9250506040611f5786828701611d59565b9150509250925092565b6000611f6d83836121d1565b905092915050565b611f7e81612783565b82525050565b611f8d81612771565b82525050565b6000611f9e82612637565b611fa8818561265a565b935083602082028501611fba85612627565b8060005b85811015611ff65784840389528151611fd78582611f61565b9450611fe28361264d565b925060208a01995050600181019050611fbe565b50829750879550505050505092915050565b612011816127de565b82525050565b600061202282612642565b61202c818561266b565b935061203c8185602086016127ff565b61204581612994565b840191505092915050565b600061205d600d8361267c565b9150612068826129a5565b602082019050919050565b600061208060138361267c565b915061208b826129ce565b602082019050919050565b60006120a3600b8361267c565b91506120ae826129f7565b602082019050919050565b60006120c660138361267c565b91506120d182612a20565b602082019050919050565b60006120e960178361267c565b91506120f482612a49565b602082019050919050565b600061210c60198361267c565b915061211782612a72565b602082019050919050565b600061212f60158361267c565b915061213a82612a9b565b602082019050919050565b600061215260148361267c565b915061215d82612ac4565b602082019050919050565b600061217560148361267c565b915061218082612aed565b602082019050919050565b600061219860168361267c565b91506121a382612b16565b602082019050919050565b60006121bb60128361267c565b91506121c682612b3f565b602082019050919050565b6000610160830160008301516121ea60008601826123af565b5060208301516121fd60208601826123af565b5060408301516122106040860182611f75565b50606083015184820360608601526122288282612017565b915050608083015161223d60808601826123af565b5060a083015161225060a08601826123af565b5060c083015161226360c08601826123af565b5060e083015161227660e0860182612008565b5061010083015161228b6101008601826123af565b506101208301516122a06101208601826123af565b506101408301516122b56101408601826123af565b508091505092915050565b6000610160830160008301516122d960008601826123af565b5060208301516122ec60208601826123af565b5060408301516122ff6040860182611f75565b50606083015184820360608601526123178282612017565b915050608083015161232c60808601826123af565b5060a083015161233f60a08601826123af565b5060c083015161235260c08601826123af565b5060e083015161236560e0860182612008565b5061010083015161237a6101008601826123af565b5061012083015161238f6101208601826123af565b506101408301516123a46101408601826123af565b508091505092915050565b6123b8816127d4565b82525050565b6123c7816127d4565b82525050565b60006060820190506123e26000830186611f84565b6123ef6020830185611f84565b6123fc60408301846123be565b949350505050565b60006040820190506124196000830185611f84565b61242660208301846123be565b9392505050565b600060208201905081810360008301526124478184611f93565b905092915050565b6000602082019050818103600083015261246881612050565b9050919050565b6000602082019050818103600083015261248881612073565b9050919050565b600060208201905081810360008301526124a881612096565b9050919050565b600060208201905081810360008301526124c8816120b9565b9050919050565b600060208201905081810360008301526124e8816120dc565b9050919050565b60006020820190508181036000830152612508816120ff565b9050919050565b6000602082019050818103600083015261252881612122565b9050919050565b6000602082019050818103600083015261254881612145565b9050919050565b6000602082019050818103600083015261256881612168565b9050919050565b600060208201905081810360008301526125888161218b565b9050919050565b600060208201905081810360008301526125a8816121ae565b9050919050565b600060208201905081810360008301526125c981846122c0565b905092915050565b60006125db6125ec565b90506125e78282612864565b919050565b6000604051905090565b600067ffffffffffffffff82111561261157612610612951565b5b61261a82612994565b9050602081019050919050565b6000819050602082019050919050565b600081519050919050565b600081519050919050565b6000602082019050919050565b600082825260208201905092915050565b600082825260208201905092915050565b600082825260208201905092915050565b6000612698826127d4565b91506126a3836127d4565b9250827fffffffffffffffffffffffffffffffffffffffffffffffffffffffffffffffff038211156126d8576126d7612895565b5b828201905092915050565b60006126ee826127d4565b91506126f9836127d4565b9250817fffffffffffffffffffffffffffffffffffffffffffffffffffffffffffffffff048311821515161561273257612731612895565b5b828202905092915050565b6000612748826127d4565b9150612753836127d4565b92508282101561276657612765612895565b5b828203905092915050565b600061277c826127b4565b9050919050565b600061278e826127b4565b9050919050565b60008115159050919050565b60008190506127af82612b68565b919050565b600073ffffffffffffffffffffffffffffffffffffffff82169050919050565b6000819050919050565b60006127e9826127a1565b9050919050565b82818337600083830152505050565b60005b8381101561281d578082015181840152602081019050612802565b8381111561282c576000848401525b50505050565b6000600282049050600182168061284a57607f821691505b6020821081141561285e5761285d6128f3565b5b50919050565b61286d82612994565b810181811067ffffffffffffffff8211171561288c5761288b612951565b5b80604052505050565b7f4e487b7100000000000000000000000000000000000000000000000000000000600052601160045260246000fd5b7f4e487b7100000000000000000000000000000000000000000000000000000000600052602160045260246000fd5b7f4e487b7100000000000000000000000000000000000000000000000000000000600052602260045260246000fd5b7f4e487b7100000000000000000000000000000000000000000000000000000000600052603260045260246000fd5b7f4e487b7100000000000000000000000000000000000000000000000000000000600052604160045260246000fd5b600080fd5b600080fd5b600080fd5b600080fd5b6000601f19601f8301169050919050565b7f496e76616c696420766f74652100000000000000000000000000000000000000600082015250565b7f496e76616c696420776974686472617749442100000000000000000000000000600082015250565b7f4e6f742066756e64657221000000000000000000000000000000000000000000600082015250565b7f4e6f7420656e6f7567682062616c616e63652100000000000000000000000000600082015250565b7f596f75277265206e6f74207468652063726561746f7221000000000000000000600082015250565b7f506c6561736520776169742074696c6c20646561646c696e6500000000000000600082015250565b7f596f7527766520616c726561647920766f7465642e0000000000000000000000600082015250565b7f496e76616c69642043616d706169676e20494421000000000000000000000000600082015250565b7f43726f776446756e6420697320636c6f73656421000000000000000000000000600082015250565b7f5769746864726177616c20697320636c61696d65642100000000000000000000600082015250565b7f4e6f7420656e6f7567682076616c756521200000000000000000000000000000600082015250565b60058110612b7957612b786128c4565b5b50565b612b8581612795565b8114612b9057600080fd5b50565b612b9c816127d4565b8114612ba757600080fd5b5056fea264697066735822122023a26f8e950d4dc62bf78a2fa736da09a20966623fe516ead1b1b3b0b1ed6dd664736f6c63430008070033",
  "linkReferences": {},
  "deployedLinkReferences": {}
}